:020000040800F2
:1000000088080020450100082D0A0008190600088C
:10001000290A00083D020008450E00080000000003
:10002000000000000000000000000000250B000898
:1000300041020008000000002F0A00084D0C0008D3
:100040005F0100085F0100085F0100085F01000810
:100050005F0100085F0100085F0100085F01000800
:100060005F0100085F0100085F0100085F010008F0
:100070005F0100085F0100085F0100085F010008E0
:100080005F0100085F0100085F0100085F010008D0
:100090005F0100085F0100085F0100085F010008C0
:1000A0005F0100085F0100085F0100085F010008B0
:1000B0005F0100085F0100085F0100085F010008A0
:1000C0005F0100085F0100085F0100085F01000890
:1000D0005F0100085F0100085F0100085F01000880
:1000E0005F0100085F0100085F0100085F01000870
:1000F0005F0100085F0100085F0100085F01000860
:100100005F0100085F0100085F0100085F0100084F
:100110005F0100085F0100085F0100085F0100083F
:100120005F0100085F0100085F0100085F0100082F
:10013000DFF80CD000F018F8004800475D0F000809
:10014000880800200648804706480047FEE7FEE78B
:10015000FEE7FEE7FEE7FEE7FEE7FEE7FEE7FEE777
:10016000510C000831010008064C074D06E0E0681C
:1001700040F0010394E8070098471034AC42F6D3EE
:10018000FFF7DAFF2C1700084C17000870B58C1821
:1001900010F8015B15F0070301D110F8013B2A119B
:1001A00006D110F8012B03E010F8016B01F8016B88
:1001B0005B1EF9D12B0705D40023521E0DD401F884
:1001C000013BFAE710F8013BCB1A921C03E013F84D
:1001D000015B01F8015B521EF9D5A142D8D3002082
:1001E00070BD2DE9F04104460D4616461F462A20F3
:1001F00000F0EAFAC4F3072000F0DAFAE0B200F007
:10020000D7FAC6F3072000F0D3FAF0B200F0D0FA24
:100210002B2000F0D9FAC5F3072000F0C9FAE8B2A4
:1002200000F0C6FAC7F3072000F0C2FAF8B200F0F7
:10023000BFFA2C2000F0C8FABDE8F08100BFFEE74D
:10024000704700E0401E0028FCD170470FB4F0B5A5
:1002500085B04D4F0BA800908DE00A9800785C287F
:1002600020D10A98401C0A9000786E2809D0722884
:1002700013D10D21384600F0E1FD0A98401C0A9088
:100280000FE00D21384600F0D9FD0A21384600F074
:10029000D5FD0A98401C0A9003E00A98401C0A9079
:1002A00000BF61E00A980078252856D10A98401CC2
:1002B0000A900078632837D0642818D0732847D173
:1002C000009810C800900BE02178384600F0B6FD89
:1002D00000BF4021384600F037FD0028F9D0641CEB
:1002E00020780028F0D10A98401C0A9034E0009849
:1002F00020C800900A2201A9284600F0FDFD01ACAB
:100300000BE02178384600F099FD00BF40213846C7
:1003100000F01AFD0028F9D0641C20780028F0D1E4
:100320000A98401C0A9017E0009810F8041BCEB2FF
:1003300000903146384600F081FD00BF402138462C
:1003400000F002FD0028F9D00A98401C0A9003E052
:100350000A98401C0A9000BF06E00A9810F8011B9A
:100360000A90384600F06AFD00BF4021384600F090
:10037000EBFC0028F9D00A98007800287FF46DAFD4
:1003800005B0F0BC5DF814FB0038014008B5012150
:10039000092000F04DFB0420ADF8000003208DF88B
:1003A000020010208DF8030069462D4800F05CF82B
:1003B0004020ADF8000003208DF8020010208DF8D9
:1003C00003006946264800F04FF88020ADF8000091
:1003D00003208DF8020010208DF8030069462048A4
:1003E00000F042F84FF48070ADF8000003208DF863
:1003F000020010208DF803006946194800F034F817
:100400004FF40070ADF8000003208DF802001020BA
:100410008DF803006946124800F026F84FF480601A
:10042000ADF8000003208DF8020010208DF80300C5
:1004300069460B4800F018F84FF40060ADF8000072
:1004400003208DF8020010208DF80300694604484F
:1004500000F00AF80121034800F092F808BD0000FE
:10046000000C0140000230002DE9F0410246002559
:100470000026002000230024002791F803C00CF080
:100480000F0591F803C00CF0100CBCF1000F03D065
:1004900091F802C04CEA050591F800C0BCF1000FCC
:1004A00031D0146800202BE04FF0010C0CFA00F35F
:1004B000B1F800C00CEA03069E4220D183004FF041
:1004C0000F0C0CFA03F7BC4305FA03FC4CEA0404D6
:1004D00091F803C0BCF1280F06D14FF0010C0CFAC3
:1004E00000FCC2F814C00AE091F803C0BCF1480F48
:1004F00005D14FF0010C0CFA00FCC2F810C0401CF2
:100500000828D1D31460B1F800C0BCF1FF0F34DD6E
:10051000546800202EE000F1080C4FF0010808FAA2
:100520000CF3B1F800C00CEA03069E4221D183000F
:100530004FF00F0C0CFA03F7BC4305FA03FC4CEA2E
:10054000040491F803C0BCF1280F05D100F1080C98
:1005500008FA0CF8C2F8148091F803C0BCF1480FF7
:1005600007D100F1080C4FF0010808FA0CF8C2F8A6
:100570001080401C0828CED35460BDE8F0810000F4
:10058000F0B50A46002300240021002500F00046B3
:10059000B6F1004F02D11D4EF16901E01B4E7168AA
:1005A000C0F3034583B200F44016B6F5401F08D1EE
:1005B00021F07061154E766826F07066134F7E60EC
:1005C00012E000F48016B6F5801F06D1032606FA65
:1005D00005F4A14341F0706106E0460D360103FACF
:1005E00006F6B14341F0706122B1460D360103FABF
:1005F00006F6314300F00046B6F1004F02D1034E3B
:10060000F16101E0014E7160F0BD000000000140A9
:10061000416170470161704700BFFEE770B5064653
:10062000EF2340F23F1200210846FFF7DAFD0024D5
:1006300008E0002503E0304600F0AAF86D1CF02D1C
:10064000F9D3641CB4F5A07FF3D370BD70B5044634
:100650000D462B46224629462046FFF7C2FD02489A
:10066000006800F095F870BD540400202DE9F84FA3
:1006700005460F4616469A46AB463248006800903B
:10068000B5F5987F01D8E02F01D9BDE8F88FA6F124
:100690002000C6B207F10F03EA1D39462846FFF7CE
:1006A000A0FDBAF1000F29D1002424E004EB0610CC
:1006B000254911F800904FF0000815E009F00100FD
:1006C00018B120490098086003E0204800681D49DF
:1006D00008601C48006800F05BF84FEA69096D1C6F
:1006E00008F1010000F0FF08B8F1080FE6DB5D46F5
:1006F0007F1C601CC4B2102CD8DB1EE000241AE062
:1007000004EB0610104911F800904FF000080DE0BE
:1007100009F0010020B1391905EB0800FFF796FF39
:100720004FEA690908F1010000F0FF08B8F1080F6D
:10073000EEDB601CC4B2102CE2DB024900980860BA
:1007400000BFA2E7540400203C1100085004002020
:1007500070B505460E46144615E0B5F5987F01D9EB
:1007600000251036E02E06D90020054606464FF437
:100770007840FFF753FF2278002331462846FFF7E1
:1007800075FF0835641C20780028E6D170BD000094
:1007900010B5044680210548FFF73CFFC4F307204D
:1007A00000F01EF8E0B200F01BF810BD000C014094
:1007B00010B5044680210348FFF72CFF204600F0C7
:1007C0000FF810BD000C014010B50446802103480D
:1007D000FFF71EFF204600F003F810BD000C01409B
:1007E00070B5044600251BE04FF480710E48FFF7FA
:1007F0000FFF04F0800028B14FF400710A48FFF7A2
:1008000009FF04E04FF400710748FFF701FF4FF4C0
:1008100080710548FFF7FEFE6006040E681CC5B235
:10082000082DE1DB70BD0000000C014010B5142064
:1008300000F03CFB142000F039FBCF20FFF7C4FF91
:100840000020FFF7B5FFD920FFF7B2FF3020FFF7F8
:10085000AFFFED20FFF7B8FF6420FFF7A9FF0320EB
:10086000FFF7A6FF1220FFF7A3FF8120FFF7A0FFED
:10087000E820FFF7A9FF8520FFF79AFF1020FFF778
:1008800097FF7820FFF794FFCB20FFF79DFF3920DB
:10089000FFF78EFF2C20FFF78BFF0020FFF788FF6C
:1008A0003420FFF785FF0220FFF782FFF720FFF7D4
:1008B0008BFF2020FFF77CFFEA20FFF785FF002059
:1008C000FFF776FF0020FFF773FFC020FFF77CFFE4
:1008D0002120FFF76DFFC120FFF776FF1220FFF701
:1008E00067FFC520FFF770FF3220FFF761FF3C2054
:1008F000FFF75EFFC720FFF767FFC120FFF758FF34
:100900003620FFF761FFA820FFF752FF3A20FFF7DC
:100910005BFF5520FFF74CFFB120FFF755FF00208C
:10092000FFF746FF1820FFF743FFB620FFF74CFF05
:100930000A20FFF73DFFA220FFF73AFFF220FFF762
:1009400043FF0020FFF734FF2620FFF73DFF012083
:10095000FFF72EFFE020FFF737FF0F20FFF728FFFC
:100960002020FFF725FF1E20FFF722FF0920FFF7B9
:100970001FFF1220FFF71CFF0B20FFF719FF50206D
:10098000FFF716FFBA20FFF713FF4420FFF710FF11
:100990000920FFF70DFF1420FFF70AFF0520FFF7DE
:1009A00007FF2320FFF704FF2120FFF701FF0020AE
:1009B000FFF7FEFEE120FFF707FF0020FFF7F8FE3C
:1009C0001920FFF7F5FE1920FFF7F2FE0020FFF7D0
:1009D000EFFE1220FFF7ECFE0720FFF7E9FE2D20C7
:1009E000FFF7E6FE2820FFF7E3FE3F20FFF7E0FEDB
:1009F0000220FFF7DDFE0A20FFF7DAFE0820FFF7EE
:100A0000D7FE2520FFF7D4FE2D20FFF7D1FE0F20C3
:100A1000FFF7CEFE1120FFF7D7FE782000F046FA50
:100A20002920FFF7D1FE10BD00BFFEE770477047D9
:100A300029B1064A92690243044B9A6104E0034AD1
:100A400092698243014B9A61704700000010024096
:100A500030B500210022002400232D4D6D6805F0E3
:100A60000C0121B1042905D0082923D105E0294D25
:100A7000056022E0274D05601FE0254D6D6805F4F7
:100A80007012234D6D6805F48034022505EB924207
:100A90001CB9214D554305600BE01D4D6D6805F4F3
:100AA00000351DB11C4D5543056002E0194D5543FD
:100AB000056002E0174D056000BF00BF144D6D6872
:100AC00005F0F0010909154D6B5C0568DD404560D6
:100AD0000F4D6D6805F4E061090A104D6B5C4568C7
:100AE000DD4085600A4D6D6805F46051C90A0B4D03
:100AF0006B5C4568DD40C560054D6D6805F440419F
:100B0000890B074D6B5CC568B5FBF3F5056130BD1E
:100B10000010024000127A0000093D005C04002031
:100B20006C04002070470000024A1060024A116005
:100B300070470000500400205404002010B500F05D
:100B400001F810BD0CB500200190009033480068FA
:100B500040F480303149086000BF3048006800F43C
:100B6000003000900198401C0190009818B901983D
:100B7000B0F5A06FF1D12948006800F4003010B141
:100B80000120009001E0002000900098012843D14E
:100B90002348006840F010002149086008460068BA
:100BA00020F0030008600846006840F0020008607A
:100BB0001A48406819494860084640684860084635
:100BC000406840F4806048600846406820F47C102B
:100BD00048600846406840F4E810486008460068ED
:100BE00040F08070086000BF0C48006800F00070A2
:100BF0000028F9D00948406820F003000749486000
:100C00000846406840F00200486000BF0348406862
:100C100000F00C000828F9D10CBD000000100240C3
:100C200000200240042808D14FF0E021096941F07A
:100C300004014FF0E022116107E04FF0E021096963
:100C400021F004014FF0E02211617047704700006D
:100C500010B51348006840F00100114908600846CB
:100C60004068104908400E494860084600680E492F
:100C700008400B4908600846006820F4802008609E
:100C80000846406820F4FE0048604FF41F0088606A
:100C9000FFF754FF4FF000600449086010BD0000EA
:100CA000001002400000FFF8FFFFF6FE08ED00E034
:100CB00000B585B0012144F20400FFF7B9FE4FF4FE
:100CC0000070ADF8100018208DF8130003208DF887
:100CD000120004A91448FFF7C7FB4FF48060ADF879
:100CE000100018208DF8130003208DF8120004A9BD
:100CF0000D48FFF7B9FB4FF4E13000900020ADF84C
:100D00000400ADF80600ADF80800ADF80C000C20AA
:100D1000ADF80A006946054800F024F801210348AF
:100D200000F006F805B000BD0008014000380140A1
:100D300021B1828942F40052828104E082894DF619
:100D4000FF731A408281704702460020B1F5007F90
:100D500000D100BF13880B400BB1012000E0002040
:100D6000704700002DE9F04786B005460E46002486
:100D7000A24600BFA1460027B08900B100BF2F46A0
:100D80002C8A4CF6FF700440F08804432C82AC8916
:100D90004EF6F3100440B088318908437189084346
:100DA0000443AC81AC8A4FF6FF400440B089044351
:100DB000AC8201A8FFF74CFE1F48874202D1DDF844
:100DC00010A001E0DDF80CA0A88900F4004040B1BB
:100DD0000AEBCA0000EB0A1031684900B0FBF1F8D9
:100DE00007E00AEBCA0000EB0A1031688900B0FB8B
:100DF000F1F86420B8FBF0F004012009642101FB44
:100E00001089A88900F4004040B1322000EBC900ED
:100E1000B0FBF1F000F00700044308E0322000EBE3
:100E200009106421B0FBF1F000F00F0004432C81A5
:100E300006B0BDE8F087000000380140C1F30802A9
:100E40008280704700BFFEE702E008C8121F08C199
:100E5000002AFAD170477047002001E001C1121F3B
:100E6000002AFBD17047000010B56FF00400FFF7B7
:100E7000D9FE0A4800680A49B0FBF1F00949087038
:100E80000846007800EB4001C1EBC0104FF6FF713F
:100E900001EAC0000449088010BD00007004002071
:100EA00000127A00580400205A0400200146114A1A
:100EB00012884A434FF0E0235A6100229A611A4691
:100EC000126942F001021A6100BF4FF0E02210697E
:100ED00000F001021AB100F48032002AF5D04FF080
:100EE000E022126922F001024FF0E0231A61002291
:100EF0009A6170475A040020F0B503460D46164625
:100F0000002729460A2E03D0002008702846F0BD8D
:100F100033B9302001F8010B002008702846F6E7AD
:100F2000002B03DA2D2001F8010B5B4242F2107214
:100F30000DE093FBF2F404B937B104F1300001F88D
:100F4000010B04FB123301270A2092FBF0F2002A66
:100F5000EFDC002008702846D9E7000086B00024A6
:100F6000FFF714FAFFF7A4FE01A8FFF771FD25496A
:100F70000198B0FBF1F5294623A0FFF767F9214955
:100F80000298B0FBF1F5294627A0FFF75FF91D494C
:100F90000398B0FBF1F529462AA0FFF757F9194944
:100FA0000498B0FBF1F529462DA0FFF74FF9FFF7A4
:100FB0005BFF0120314908603148FFF742F900200A
:100FC00030490860FFF732FC00214FF6FF70FFF751
:100FD000ABFD6FF07F40FFF721FB2BA201210846FC
:100FE000FFF7B6FB032214210A2000F06FF807E098
:100FF0002348FFF726F921462FA0FFF727F9641CA5
:10100000F6E7000040420F000D0A535953434C4B82
:101010005F4672657175656E6379203D2025642099
:101020004D487A0A000000000D0A48434C4B5F46C9
:1010300072657175656E6379203D202564204D4889
:101040007A0A00000D0A50434C4B315F46726571BD
:1010500075656E6379203D202564204D487A0A002D
:101060000D0A50434C4B325F4672657175656E6375
:1010700079203D202564204D487A0A000400002094
:10108000FFFF0F00988121426162636564666364BB
:10109000733132337465726572657274657274652A
:1010A0007274657274657274657265727465726566
:1010B00072746572000000000D0A48656C6C6F2048
:1010C000576F726420202564200D0A002DE9F04737
:1010D000074688461446164E08F11F0307F11F0203
:1010E00041463846FFF77DF806EBC4164FF000097D
:1010F00018E000250FE030780121A940084020B118
:101100000C480068FFF744FB03E00B480068FFF75A
:101110003FFB681CC5B2082DEDDB761C09F1010010
:1011200000F0FF09B9F1800FE3DBBDE8F0870000B4
:101130001000002054040020500400200000000093
:101140000000000000000000000000000000000897
:1011500008080808080800001818000000486C2457
:101160001200000000000000000000000000002449
:1011700024247F1212127F12121200000000081C99
:101180002A2A0A0C1828282A2A1C080800000022EB
:10119000251515152A585454542200000000000C3F
:1011A0001212120A76252911916E0000000606041B
:1011B00003000000000000000000000000402010BC
:1011C0001008080808080810102040000002040851
:1011D0000810101010101008080402000000000091
:1011E00008086B1C1C6B08080000000000000000D1
:1011F000080808087F080808080000000000000030
:1012000000000000000000000606040300000000CB
:1012100000000000FE0000000000000000000000D0
:1012200000000000000000000606000000008040F2
:1012300040202010100808040402020000000018DA
:101240002442424242424242241800000000000868
:101250000E08080808080808083E00000000003CC6
:101260004242422020100804427E00000000003C60
:101270004242201820404042221C00000000002072
:101280003028242422227E20207800000000007EC6
:101290000202021A26404042221C000000000038D0
:1012A0002402021A26424242241800000000007E56
:1012B0002222101008080808080800000000003C5E
:1012C0004242422418244242423C000000000018DE
:1012D0002442424264584040241C000000000000A8
:1012E000000018180000000018180000000000009E
:1012F0000000000800000000000808040000004092
:101300002010080402040810204000000000000023
:1013100000007F0000007F000000000000000002CD
:101320000408102040201008040200000000003CC7
:101330004242464020101000181800000000001C17
:10134000225A555555552D42221C00000000000818
:1013500008181414243C224242E700000000001F39
:101360002222221E22424242221F00000000007C54
:101370004242010101010142221C00000000001F45
:101380002242424242424242221F00000000003FED
:101390004212121E12120242423F00000000003FA1
:1013A0004212121E12120202020700000000003C4C
:1013B0002222010101712122221C0000000000E70D
:1013C000424242427E42424242E700000000003E6A
:1013D0000808080808080808083E00000000007C0B
:1013E00010101010101010101010110F00000077C6
:1013F00022120A0E0A1212222277000000000007B1
:101400000202020202020202427F00000000007794
:10141000363636362A2A2A2A2A6B0000000000E3D4
:1014200046464A4A52525262624700000000001C7F
:101430002241414141414141221C00000000003F46
:10144000424242423E020202020700000000001C2B
:101450002241414141414D53321C60000000003F98
:101460004242423E1212222242C700000000007C8B
:101470004242020418204042423E00000000007F29
:101480004908080808080808081C0000000000E7D0
:101490004242424242424242423C0000000000E7D7
:1014A0004242222424141418080800000000006B93
:1014B000494949495555362222220000000000E7DB
:1014C000422424181818242442E700000000007762
:1014D0002222141408080808081C00000000007EDE
:1014E0002120101008040442423F00000078080840
:1014F0000808080808080808080878000000020220
:10150000040408080810102020204040001E10107D
:10151000101010101010101010101E000038440091
:1015200000000000000000000000000000000000BB
:101530000000000000000000000000FF000608009E
:10154000000000000000000000000000000000009B
:101550000000003C4278444242FC000000000003CE
:101560000202021A26424242261A0000000000002F
:10157000000000384402020244380000000000600D
:10158000404040784442424264D8000000000000DD
:101590000000003C427E0202423C0000000000F0DD
:1015A0008808087E08080808083E000000000000BF
:1015B0000000007C22221C023C42423C000000034E
:1015C0000202023A4642424242E700000000000C9A
:1015D0000C00000E08080808083E0000000000305B
:1015E00030000038202020202020221E0000000390
:1015F00002020272120A1612227700000000000E88
:101600000808080808080808083E00000000000054
:101610000000007F9292929292B7000000000000BA
:101620000000003B4642424242E70000000000004A
:101630000000003C42424242423C000000000000E8
:101640000000001B26424242221E0207000000004A
:101650000000007844424242447840E0000000002C
:10166000000000774C040404041F00000000000088
:101670000000007C42023C40423E000000000000AE
:101680000008083E080808080830000000000000B4
:10169000000000634242424262DC000000000000A1
:1016A000000000E7422424140808000000000000A5
:1016B000000000EB494955552222000000000000BF
:1016C0000000007624181818246E000000000000A6
:1016D000000000E742242414180808070000000056
:1016E0000000007E22100808447E000000C0202078
:1016F00020202010202020202020C00010101010BA
:101700001010101010101010101010100006080803
:101710000808081008080808080806000C32C2006B
:101720000000000000000000000000004C1700084E
:1017300000000020840400008C010008301900081B
:101740008404002004040000580E00084102140123
:101750002A8004191AD904080D1A1080010CF0FF10
:10176000FF0F308001040419246A070C091248098C
:10177000100401131A011914FFFF011A03082904A8
:10178000E90C3381812A0304261CFCFFFF3F1A4029
:101790000B5AC0282AC00C49041BFFFF4C22411AD7
:1017A0000468230E711B07815A14010760100B0196
:1017B0000E1898011C04E001181927F11A08C42317
:1017C0001F304A0C046809100C30FE3F0C30041026
:1017D00069041BC00C281E0D3030060E049C0C3012
:1017E00010044B188604101208060D300C860D30BC
:1017F00006EE0F3002FC0D30015B0CF040193C2A64
:101800000F081A109ED1299019CB4908890417E0B6
:10181000FFFF0360C009130409161C59181A0104BC
:1018200029441A08045A100419F8130138041780BF
:10183000FF1F2603C0FFFF071A8004293D326032D4
:10184000181A0C135A030419A41C800108045E1C06
:10185000FCFFFF3F100928041AFC0432E082401B01
:10186000F010012AFF050215F01B0F04012AFF05E5
:1018700002130F18094040405F55555575041A5F13
:101880000C091121080C11200F094989790909094E
:101890000F201F112FFE02424ACA4A0304134202BC
:1018A000FE000E14FF40504C4340404F50505C40EF
:1018B000FF1BF888012AFF050215F81B1F08012AE3
:1018C0007F200B109F80E23B808201000916E2A27C
:1018D000928A86828080041840807F172424A4FE88
:1018E000A3221B22CCAA011415080601FF2B010418
:1018F000010511FF0202025808101010FF10900895
:10190000C3021108080F150444827F018080404300
:101910002C10284681A0B12D0102030404100906F1
:1019200007080902040608ACA24A041C2918000092
:0400000508000131BD
:00000001FF
